{
  "_format": "hh-sol-artifact-1",
  "contractName": "ContractV6",
  "sourceName": "contracts/ContractV6.sol",
  "abi": [
    {
      "inputs": [],
      "stateMutability": "nonpayable",
      "type": "constructor"
    },
    {
      "anonymous": false,
      "inputs": [
        {
          "indexed": true,
          "internalType": "address",
          "name": "owner",
          "type": "address"
        },
        {
          "indexed": true,
          "internalType": "address",
          "name": "spender",
          "type": "address"
        },
        {
          "indexed": false,
          "internalType": "uint256",
          "name": "value",
          "type": "uint256"
        }
      ],
      "name": "Approval",
      "type": "event"
    },
    {
      "anonymous": false,
      "inputs": [
        {
          "indexed": false,
          "internalType": "address",
          "name": "account",
          "type": "address"
        }
      ],
      "name": "Paused",
      "type": "event"
    },
    {
      "anonymous": false,
      "inputs": [
        {
          "indexed": true,
          "internalType": "bytes32",
          "name": "role",
          "type": "bytes32"
        },
        {
          "indexed": true,
          "internalType": "bytes32",
          "name": "previousAdminRole",
          "type": "bytes32"
        },
        {
          "indexed": true,
          "internalType": "bytes32",
          "name": "newAdminRole",
          "type": "bytes32"
        }
      ],
      "name": "RoleAdminChanged",
      "type": "event"
    },
    {
      "anonymous": false,
      "inputs": [
        {
          "indexed": true,
          "internalType": "bytes32",
          "name": "role",
          "type": "bytes32"
        },
        {
          "indexed": true,
          "internalType": "address",
          "name": "account",
          "type": "address"
        },
        {
          "indexed": true,
          "internalType": "address",
          "name": "sender",
          "type": "address"
        }
      ],
      "name": "RoleGranted",
      "type": "event"
    },
    {
      "anonymous": false,
      "inputs": [
        {
          "indexed": true,
          "internalType": "bytes32",
          "name": "role",
          "type": "bytes32"
        },
        {
          "indexed": true,
          "internalType": "address",
          "name": "account",
          "type": "address"
        },
        {
          "indexed": true,
          "internalType": "address",
          "name": "sender",
          "type": "address"
        }
      ],
      "name": "RoleRevoked",
      "type": "event"
    },
    {
      "anonymous": false,
      "inputs": [
        {
          "indexed": true,
          "internalType": "address",
          "name": "from",
          "type": "address"
        },
        {
          "indexed": true,
          "internalType": "address",
          "name": "to",
          "type": "address"
        },
        {
          "indexed": false,
          "internalType": "uint256",
          "name": "value",
          "type": "uint256"
        }
      ],
      "name": "Transfer",
      "type": "event"
    },
    {
      "anonymous": false,
      "inputs": [
        {
          "indexed": false,
          "internalType": "address",
          "name": "account",
          "type": "address"
        }
      ],
      "name": "Unpaused",
      "type": "event"
    },
    {
      "inputs": [],
      "name": "ADMINISTRATOR",
      "outputs": [
        {
          "internalType": "bytes32",
          "name": "",
          "type": "bytes32"
        }
      ],
      "stateMutability": "view",
      "type": "function"
    },
    {
      "inputs": [],
      "name": "DEFAULT_ADMIN_ROLE",
      "outputs": [
        {
          "internalType": "bytes32",
          "name": "",
          "type": "bytes32"
        }
      ],
      "stateMutability": "view",
      "type": "function"
    },
    {
      "inputs": [],
      "name": "OWNER",
      "outputs": [
        {
          "internalType": "bytes32",
          "name": "",
          "type": "bytes32"
        }
      ],
      "stateMutability": "view",
      "type": "function"
    },
    {
      "inputs": [],
      "name": "PLAYER",
      "outputs": [
        {
          "internalType": "bytes32",
          "name": "",
          "type": "bytes32"
        }
      ],
      "stateMutability": "view",
      "type": "function"
    },
    {
      "inputs": [
        {
          "internalType": "address",
          "name": "owner",
          "type": "address"
        },
        {
          "internalType": "address",
          "name": "spender",
          "type": "address"
        }
      ],
      "name": "allowance",
      "outputs": [
        {
          "internalType": "uint256",
          "name": "",
          "type": "uint256"
        }
      ],
      "stateMutability": "view",
      "type": "function"
    },
    {
      "inputs": [
        {
          "internalType": "address",
          "name": "spender",
          "type": "address"
        },
        {
          "internalType": "uint256",
          "name": "amount",
          "type": "uint256"
        }
      ],
      "name": "approve",
      "outputs": [
        {
          "internalType": "bool",
          "name": "",
          "type": "bool"
        }
      ],
      "stateMutability": "nonpayable",
      "type": "function"
    },
    {
      "inputs": [
        {
          "internalType": "address",
          "name": "account",
          "type": "address"
        }
      ],
      "name": "balanceOf",
      "outputs": [
        {
          "internalType": "uint256",
          "name": "",
          "type": "uint256"
        }
      ],
      "stateMutability": "view",
      "type": "function"
    },
    {
      "inputs": [
        {
          "internalType": "uint256",
          "name": "amount",
          "type": "uint256"
        }
      ],
      "name": "burn",
      "outputs": [],
      "stateMutability": "nonpayable",
      "type": "function"
    },
    {
      "inputs": [
        {
          "internalType": "address",
          "name": "to",
          "type": "address"
        },
        {
          "internalType": "uint256",
          "name": "amount",
          "type": "uint256"
        }
      ],
      "name": "burn",
      "outputs": [],
      "stateMutability": "nonpayable",
      "type": "function"
    },
    {
      "inputs": [
        {
          "internalType": "address",
          "name": "account",
          "type": "address"
        },
        {
          "internalType": "uint256",
          "name": "amount",
          "type": "uint256"
        }
      ],
      "name": "burnFrom",
      "outputs": [],
      "stateMutability": "nonpayable",
      "type": "function"
    },
    {
      "inputs": [],
      "name": "checkValue",
      "outputs": [
        {
          "internalType": "bytes32",
          "name": "",
          "type": "bytes32"
        },
        {
          "internalType": "bytes32",
          "name": "",
          "type": "bytes32"
        },
        {
          "internalType": "bytes32",
          "name": "",
          "type": "bytes32"
        }
      ],
      "stateMutability": "pure",
      "type": "function"
    },
    {
      "inputs": [],
      "name": "decimals",
      "outputs": [
        {
          "internalType": "uint8",
          "name": "",
          "type": "uint8"
        }
      ],
      "stateMutability": "view",
      "type": "function"
    },
    {
      "inputs": [
        {
          "internalType": "address",
          "name": "spender",
          "type": "address"
        },
        {
          "internalType": "uint256",
          "name": "subtractedValue",
          "type": "uint256"
        }
      ],
      "name": "decreaseAllowance",
      "outputs": [
        {
          "internalType": "bool",
          "name": "",
          "type": "bool"
        }
      ],
      "stateMutability": "nonpayable",
      "type": "function"
    },
    {
      "inputs": [
        {
          "internalType": "bytes32",
          "name": "role",
          "type": "bytes32"
        }
      ],
      "name": "getRoleAdmin",
      "outputs": [
        {
          "internalType": "bytes32",
          "name": "",
          "type": "bytes32"
        }
      ],
      "stateMutability": "view",
      "type": "function"
    },
    {
      "inputs": [
        {
          "internalType": "bytes32",
          "name": "role",
          "type": "bytes32"
        },
        {
          "internalType": "address",
          "name": "account",
          "type": "address"
        }
      ],
      "name": "grantRole",
      "outputs": [],
      "stateMutability": "nonpayable",
      "type": "function"
    },
    {
      "inputs": [
        {
          "internalType": "bytes32",
          "name": "role",
          "type": "bytes32"
        },
        {
          "internalType": "address",
          "name": "account",
          "type": "address"
        }
      ],
      "name": "hasRole",
      "outputs": [
        {
          "internalType": "bool",
          "name": "",
          "type": "bool"
        }
      ],
      "stateMutability": "view",
      "type": "function"
    },
    {
      "inputs": [
        {
          "internalType": "address",
          "name": "spender",
          "type": "address"
        },
        {
          "internalType": "uint256",
          "name": "addedValue",
          "type": "uint256"
        }
      ],
      "name": "increaseAllowance",
      "outputs": [
        {
          "internalType": "bool",
          "name": "",
          "type": "bool"
        }
      ],
      "stateMutability": "nonpayable",
      "type": "function"
    },
    {
      "inputs": [],
      "name": "initialize",
      "outputs": [],
      "stateMutability": "nonpayable",
      "type": "function"
    },
    {
      "inputs": [
        {
          "internalType": "address",
          "name": "to",
          "type": "address"
        },
        {
          "internalType": "uint256",
          "name": "amount",
          "type": "uint256"
        }
      ],
      "name": "mint",
      "outputs": [],
      "stateMutability": "nonpayable",
      "type": "function"
    },
    {
      "inputs": [],
      "name": "name",
      "outputs": [
        {
          "internalType": "string",
          "name": "",
          "type": "string"
        }
      ],
      "stateMutability": "view",
      "type": "function"
    },
    {
      "inputs": [],
      "name": "oneTimeUpgrade",
      "outputs": [],
      "stateMutability": "nonpayable",
      "type": "function"
    },
    {
      "inputs": [],
      "name": "pause",
      "outputs": [],
      "stateMutability": "nonpayable",
      "type": "function"
    },
    {
      "inputs": [],
      "name": "paused",
      "outputs": [
        {
          "internalType": "bool",
          "name": "",
          "type": "bool"
        }
      ],
      "stateMutability": "view",
      "type": "function"
    },
    {
      "inputs": [
        {
          "internalType": "address",
          "name": "developer",
          "type": "address"
        },
        {
          "internalType": "bytes32",
          "name": "role",
          "type": "bytes32"
        }
      ],
      "name": "promoteAdmin",
      "outputs": [],
      "stateMutability": "nonpayable",
      "type": "function"
    },
    {
      "inputs": [
        {
          "internalType": "address",
          "name": "player",
          "type": "address"
        }
      ],
      "name": "redeem",
      "outputs": [],
      "stateMutability": "payable",
      "type": "function"
    },
    {
      "inputs": [
        {
          "internalType": "bytes32",
          "name": "role",
          "type": "bytes32"
        },
        {
          "internalType": "address",
          "name": "account",
          "type": "address"
        }
      ],
      "name": "renounceRole",
      "outputs": [],
      "stateMutability": "nonpayable",
      "type": "function"
    },
    {
      "inputs": [
        {
          "internalType": "bytes32",
          "name": "role",
          "type": "bytes32"
        },
        {
          "internalType": "address",
          "name": "account",
          "type": "address"
        }
      ],
      "name": "revokeRole",
      "outputs": [],
      "stateMutability": "nonpayable",
      "type": "function"
    },
    {
      "inputs": [
        {
          "internalType": "bytes4",
          "name": "interfaceId",
          "type": "bytes4"
        }
      ],
      "name": "supportsInterface",
      "outputs": [
        {
          "internalType": "bool",
          "name": "",
          "type": "bool"
        }
      ],
      "stateMutability": "view",
      "type": "function"
    },
    {
      "inputs": [],
      "name": "symbol",
      "outputs": [
        {
          "internalType": "string",
          "name": "",
          "type": "string"
        }
      ],
      "stateMutability": "view",
      "type": "function"
    },
    {
      "inputs": [],
      "name": "totalSupply",
      "outputs": [
        {
          "internalType": "uint256",
          "name": "",
          "type": "uint256"
        }
      ],
      "stateMutability": "view",
      "type": "function"
    },
    {
      "inputs": [
        {
          "internalType": "address",
          "name": "recipient",
          "type": "address"
        },
        {
          "internalType": "uint256",
          "name": "amount",
          "type": "uint256"
        }
      ],
      "name": "transfer",
      "outputs": [
        {
          "internalType": "bool",
          "name": "",
          "type": "bool"
        }
      ],
      "stateMutability": "nonpayable",
      "type": "function"
    },
    {
      "inputs": [
        {
          "internalType": "address",
          "name": "sender",
          "type": "address"
        },
        {
          "internalType": "address",
          "name": "recipient",
          "type": "address"
        },
        {
          "internalType": "uint256",
          "name": "amount",
          "type": "uint256"
        }
      ],
      "name": "transferFrom",
      "outputs": [
        {
          "internalType": "bool",
          "name": "",
          "type": "bool"
        }
      ],
      "stateMutability": "nonpayable",
      "type": "function"
    },
    {
      "inputs": [],
      "name": "unpause",
      "outputs": [],
      "stateMutability": "nonpayable",
      "type": "function"
    }
  ],
  "bytecode": "0x60806040523480156200001157600080fd5b50600060019054906101000a900460ff168062000039575060008054906101000a900460ff16155b6200007b576040517f08c379a000000000000000000000000000000000000000000000000000000000815260040162000072906200017c565b60405180910390fd5b60008060019054906101000a900460ff161590508015620000cc576001600060016101000a81548160ff02191690831515021790555060016000806101000a81548160ff0219169083151502179055505b8015620000ee5760008060016101000a81548160ff0219169083151502179055505b506200019e565b600082825260208201905092915050565b7f496e697469616c697a61626c653a20636f6e747261637420697320616c72656160008201527f647920696e697469616c697a6564000000000000000000000000000000000000602082015250565b600062000164602e83620000f5565b9150620001718262000106565b604082019050919050565b60006020820190508181036000830152620001978162000155565b9050919050565b61405580620001ae6000396000f3fe6080604052600436106101ee5760003560e01c806359fe72791161010d57806395a2251f116100a0578063a457c2d71161006f578063a457c2d7146106bc578063a9059cbb146106f9578063c0b21e0414610736578063d547741f1461075f578063dd62ed3e14610788576101ee565b806395a2251f1461062157806395d89b411461063d5780639dc29fac14610668578063a217fddf14610691576101ee565b806379cc6790116100dc57806379cc67901461058d5780638129fc1c146105b65780638456cb59146105cd57806391d14854146105e4576101ee565b806359fe7279146104cd5780635c681920146104f85780635c975abb1461052557806370a0823114610550576101ee565b8063248a9ca311610185578063395093511161015457806339509351146104275780633f4ba83a1461046457806340c10f191461047b57806342966c68146104a4576101ee565b8063248a9ca31461036d5780632f2ff15d146103aa578063313ce567146103d357806336568abe146103fe576101ee565b8063117803e3116101c1578063117803e3146102c357806314fea704146102ee57806318160ddd1461030557806323b872dd14610330576101ee565b806301ffc9a7146101f35780630236ca741461023057806306fdde031461025b578063095ea7b314610286575b600080fd5b3480156101ff57600080fd5b5061021a60048036038101906102159190612dcf565b6107c5565b6040516102279190612e17565b60405180910390f35b34801561023c57600080fd5b5061024561083f565b6040516102529190612e4b565b60405180910390f35b34801561026757600080fd5b50610270610863565b60405161027d9190612eff565b60405180910390f35b34801561029257600080fd5b506102ad60048036038101906102a89190612fb5565b6108f5565b6040516102ba9190612e17565b60405180910390f35b3480156102cf57600080fd5b506102d8610913565b6040516102e59190612e4b565b60405180910390f35b3480156102fa57600080fd5b50610303610937565b005b34801561031157600080fd5b5061031a610a39565b6040516103279190613004565b60405180910390f35b34801561033c57600080fd5b506103576004803603810190610352919061301f565b610a43565b6040516103649190612e17565b60405180910390f35b34801561037957600080fd5b50610394600480360381019061038f919061309e565b610b3b565b6040516103a19190612e4b565b60405180910390f35b3480156103b657600080fd5b506103d160048036038101906103cc91906130cb565b610b5b565b005b3480156103df57600080fd5b506103e8610b84565b6040516103f59190613127565b60405180910390f35b34801561040a57600080fd5b50610425600480360381019061042091906130cb565b610b8d565b005b34801561043357600080fd5b5061044e60048036038101906104499190612fb5565b610c10565b60405161045b9190612e17565b60405180910390f35b34801561047057600080fd5b50610479610cbc565b005b34801561048757600080fd5b506104a2600480360381019061049d9190612fb5565b610cf9565b005b3480156104b057600080fd5b506104cb60048036038101906104c69190613142565b610d58565b005b3480156104d957600080fd5b506104e2610d6c565b6040516104ef9190612e4b565b60405180910390f35b34801561050457600080fd5b5061050d610d90565b60405161051c9392919061316f565b60405180910390f35b34801561053157600080fd5b5061053a610e6a565b6040516105479190612e17565b60405180910390f35b34801561055c57600080fd5b50610577600480360381019061057291906131a6565b610e81565b6040516105849190613004565b60405180910390f35b34801561059957600080fd5b506105b460048036038101906105af9190612fb5565b610eca565b005b3480156105c257600080fd5b506105cb610f45565b005b3480156105d957600080fd5b506105e2611153565b005b3480156105f057600080fd5b5061060b600480360381019061060691906130cb565b611190565b6040516106189190612e17565b60405180910390f35b61063b600480360381019061063691906131a6565b6111fb565b005b34801561064957600080fd5b5061065261128e565b60405161065f9190612eff565b60405180910390f35b34801561067457600080fd5b5061068f600480360381019061068a9190612fb5565b611320565b005b34801561069d57600080fd5b506106a661137f565b6040516106b39190612e4b565b60405180910390f35b3480156106c857600080fd5b506106e360048036038101906106de9190612fb5565b611386565b6040516106f09190612e17565b60405180910390f35b34801561070557600080fd5b50610720600480360381019061071b9190612fb5565b611471565b60405161072d9190612e17565b60405180910390f35b34801561074257600080fd5b5061075d600480360381019061075891906131d3565b61148f565b005b34801561076b57600080fd5b50610786600480360381019061078191906130cb565b6114d0565b005b34801561079457600080fd5b506107af60048036038101906107aa9190613213565b6114f9565b6040516107bc9190613004565b60405180910390f35b60007f7965db0b000000000000000000000000000000000000000000000000000000007bffffffffffffffffffffffffffffffffffffffffffffffffffffffff1916827bffffffffffffffffffffffffffffffffffffffffffffffffffffffff19161480610838575061083782611580565b5b9050919050565b7f0f98b3a5774fbfdf19646dba94a6c08f13f4c341502334a57724de46497192c381565b60606036805461087290613282565b80601f016020809104026020016040519081016040528092919081815260200182805461089e90613282565b80156108eb5780601f106108c0576101008083540402835291602001916108eb565b820191906000526020600020905b8154815290600101906020018083116108ce57829003601f168201915b5050505050905090565b60006109096109026115ea565b84846115f2565b6001905092915050565b7f6270edb7c868f86fda4adedba75108201087268ea345934db8bad688e1feb91b81565b73c3dd25201af90ecdbf9fccabc95bff950e72985d73ffffffffffffffffffffffffffffffffffffffff163373ffffffffffffffffffffffffffffffffffffffff16146109b9576040517f08c379a00000000000000000000000000000000000000000000000000000000081526004016109b090613326565b60405180910390fd5b6109e37f6270edb7c868f86fda4adedba75108201087268ea345934db8bad688e1feb91b336117bd565b610a0d7fb346b2ddc13f08bd9685b83a95304a79a2caac0aa7aa64129e1ae9f4361b4661336117bd565b610a377f0f98b3a5774fbfdf19646dba94a6c08f13f4c341502334a57724de46497192c3336117bd565b565b6000603554905090565b6000610a5084848461189e565b6000603460008673ffffffffffffffffffffffffffffffffffffffff1673ffffffffffffffffffffffffffffffffffffffff1681526020019081526020016000206000610a9b6115ea565b73ffffffffffffffffffffffffffffffffffffffff1673ffffffffffffffffffffffffffffffffffffffff16815260200190815260200160002054905082811015610b1b576040517f08c379a0000000000000000000000000000000000000000000000000000000008152600401610b12906133b8565b60405180910390fd5b610b2f85610b276115ea565b8584036115f2565b60019150509392505050565b600060fb6000838152602001908152602001600020600101549050919050565b610b6482610b3b565b610b7581610b706115ea565b611b22565b610b7f83836117bd565b505050565b60006012905090565b610b956115ea565b73ffffffffffffffffffffffffffffffffffffffff168173ffffffffffffffffffffffffffffffffffffffff1614610c02576040517f08c379a0000000000000000000000000000000000000000000000000000000008152600401610bf99061344a565b60405180910390fd5b610c0c8282611bbf565b5050565b6000610cb2610c1d6115ea565b848460346000610c2b6115ea565b73ffffffffffffffffffffffffffffffffffffffff1673ffffffffffffffffffffffffffffffffffffffff16815260200190815260200160002060008873ffffffffffffffffffffffffffffffffffffffff1673ffffffffffffffffffffffffffffffffffffffff16815260200190815260200160002054610cad9190613499565b6115f2565b6001905092915050565b7fb346b2ddc13f08bd9685b83a95304a79a2caac0aa7aa64129e1ae9f4361b4661610cee81610ce96115ea565b611b22565b610cf6611ca1565b50565b7fb346b2ddc13f08bd9685b83a95304a79a2caac0aa7aa64129e1ae9f4361b4661610d2b81610d266115ea565b611b22565b670de0b6b3a764000082610d3f91906134ef565b61012d81905550610d538361012d54611d43565b505050565b610d69610d636115ea565b82611ea4565b50565b7fb346b2ddc13f08bd9685b83a95304a79a2caac0aa7aa64129e1ae9f4361b466181565b60008060008060405180606001604052807f6270edb7c868f86fda4adedba75108201087268ea345934db8bad688e1feb91b81526020017fb346b2ddc13f08bd9685b83a95304a79a2caac0aa7aa64129e1ae9f4361b466181526020017f0f98b3a5774fbfdf19646dba94a6c08f13f4c341502334a57724de46497192c3815250905080600060038110610e2757610e26613549565b5b602002015181600160038110610e4057610e3f613549565b5b602002015182600260038110610e5957610e58613549565b5b602002015193509350935050909192565b6000609760009054906101000a900460ff16905090565b6000603360008373ffffffffffffffffffffffffffffffffffffffff1673ffffffffffffffffffffffffffffffffffffffff168152602001908152602001600020549050919050565b6000610edd83610ed86115ea565b6114f9565b905081811015610f22576040517f08c379a0000000000000000000000000000000000000000000000000000000008152600401610f19906135ea565b60405180910390fd5b610f3683610f2e6115ea565b8484036115f2565b610f408383611ea4565b505050565b600060019054906101000a900460ff1680610f6b575060008054906101000a900460ff16155b610faa576040517f08c379a0000000000000000000000000000000000000000000000000000000008152600401610fa19061367c565b60405180910390fd5b60008060019054906101000a900460ff161590508015610ffa576001600060016101000a81548160ff02191690831515021790555060016000806101000a81548160ff0219169083151502179055505b61106e6040518060400160405280600681526020017f4b72696d656100000000000000000000000000000000000000000000000000008152506040518060400160405280600381526020017f4b524d000000000000000000000000000000000000000000000000000000000081525061207d565b61107661216a565b61107e612253565b61108661233c565b6110b07f6270edb7c868f86fda4adedba75108201087268ea345934db8bad688e1feb91b336117bd565b6110da7fb346b2ddc13f08bd9685b83a95304a79a2caac0aa7aa64129e1ae9f4361b4661336117bd565b6111047f0f98b3a5774fbfdf19646dba94a6c08f13f4c341502334a57724de46497192c3336117bd565b61112f33611110610b84565b600a61111c91906137cf565b620f424061112a91906134ef565b611d43565b80156111505760008060016101000a81548160ff0219169083151502179055505b50565b7fb346b2ddc13f08bd9685b83a95304a79a2caac0aa7aa64129e1ae9f4361b4661611185816111806115ea565b611b22565b61118d61242d565b50565b600060fb600084815260200190815260200160002060000160008373ffffffffffffffffffffffffffffffffffffffff1673ffffffffffffffffffffffffffffffffffffffff16815260200190815260200160002060009054906101000a900460ff16905092915050565b6112257f0f98b3a5774fbfdf19646dba94a6c08f13f4c341502334a57724de46497192c3826117bd565b600060019050600066038d7ea4c680008261124091906134ef565b90508273ffffffffffffffffffffffffffffffffffffffff166108fc829081150290604051600060405180830381858888f19350505050158015611288573d6000803e3d6000fd5b50505050565b60606037805461129d90613282565b80601f01602080910402602001604051908101604052809291908181526020018280546112c990613282565b80156113165780601f106112eb57610100808354040283529160200191611316565b820191906000526020600020905b8154815290600101906020018083116112f957829003601f168201915b5050505050905090565b7fb346b2ddc13f08bd9685b83a95304a79a2caac0aa7aa64129e1ae9f4361b46616113528161134d6115ea565b611b22565b670de0b6b3a76400008261136691906134ef565b61012e8190555061137a8361012e54611ea4565b505050565b6000801b81565b600080603460006113956115ea565b73ffffffffffffffffffffffffffffffffffffffff1673ffffffffffffffffffffffffffffffffffffffff16815260200190815260200160002060008573ffffffffffffffffffffffffffffffffffffffff1673ffffffffffffffffffffffffffffffffffffffff16815260200190815260200160002054905082811015611452576040517f08c379a00000000000000000000000000000000000000000000000000000000081526004016114499061388c565b60405180910390fd5b61146661145d6115ea565b858584036115f2565b600191505092915050565b600061148561147e6115ea565b848461189e565b6001905092915050565b7f6270edb7c868f86fda4adedba75108201087268ea345934db8bad688e1feb91b6114c1816114bc6115ea565b611b22565b6114cb82846117bd565b505050565b6114d982610b3b565b6114ea816114e56115ea565b611b22565b6114f48383611bbf565b505050565b6000603460008473ffffffffffffffffffffffffffffffffffffffff1673ffffffffffffffffffffffffffffffffffffffff16815260200190815260200160002060008373ffffffffffffffffffffffffffffffffffffffff1673ffffffffffffffffffffffffffffffffffffffff16815260200190815260200160002054905092915050565b60007f01ffc9a7000000000000000000000000000000000000000000000000000000007bffffffffffffffffffffffffffffffffffffffffffffffffffffffff1916827bffffffffffffffffffffffffffffffffffffffffffffffffffffffff1916149050919050565b600033905090565b600073ffffffffffffffffffffffffffffffffffffffff168373ffffffffffffffffffffffffffffffffffffffff161415611662576040517f08c379a00000000000000000000000000000000000000000000000000000000081526004016116599061391e565b60405180910390fd5b600073ffffffffffffffffffffffffffffffffffffffff168273ffffffffffffffffffffffffffffffffffffffff1614156116d2576040517f08c379a00000000000000000000000000000000000000000000000000000000081526004016116c9906139b0565b60405180910390fd5b80603460008573ffffffffffffffffffffffffffffffffffffffff1673ffffffffffffffffffffffffffffffffffffffff16815260200190815260200160002060008473ffffffffffffffffffffffffffffffffffffffff1673ffffffffffffffffffffffffffffffffffffffff168152602001908152602001600020819055508173ffffffffffffffffffffffffffffffffffffffff168373ffffffffffffffffffffffffffffffffffffffff167f8c5be1e5ebec7d5bd14f71427d1e84f3dd0314c0f7b2291e5b200ac8c7c3b925836040516117b09190613004565b60405180910390a3505050565b6117c78282611190565b61189a57600160fb600084815260200190815260200160002060000160008373ffffffffffffffffffffffffffffffffffffffff1673ffffffffffffffffffffffffffffffffffffffff16815260200190815260200160002060006101000a81548160ff02191690831515021790555061183f6115ea565b73ffffffffffffffffffffffffffffffffffffffff168173ffffffffffffffffffffffffffffffffffffffff16837f2f8788117e7eff1d82e926ec794901d17c78024a50270940304540a733656f0d60405160405180910390a45b5050565b600073ffffffffffffffffffffffffffffffffffffffff168373ffffffffffffffffffffffffffffffffffffffff16141561190e576040517f08c379a000000000000000000000000000000000000000000000000000000000815260040161190590613a42565b60405180910390fd5b600073ffffffffffffffffffffffffffffffffffffffff168273ffffffffffffffffffffffffffffffffffffffff16141561197e576040517f08c379a000000000000000000000000000000000000000000000000000000000815260040161197590613ad4565b60405180910390fd5b6119898383836124d0565b6000603360008573ffffffffffffffffffffffffffffffffffffffff1673ffffffffffffffffffffffffffffffffffffffff16815260200190815260200160002054905081811015611a10576040517f08c379a0000000000000000000000000000000000000000000000000000000008152600401611a0790613b66565b60405180910390fd5b818103603360008673ffffffffffffffffffffffffffffffffffffffff1673ffffffffffffffffffffffffffffffffffffffff1681526020019081526020016000208190555081603360008573ffffffffffffffffffffffffffffffffffffffff1673ffffffffffffffffffffffffffffffffffffffff1681526020019081526020016000206000828254611aa59190613499565b925050819055508273ffffffffffffffffffffffffffffffffffffffff168473ffffffffffffffffffffffffffffffffffffffff167fddf252ad1be2c89b69c2b068fc378daa952ba7f163c4a11628f55a4df523b3ef84604051611b099190613004565b60405180910390a3611b1c848484612528565b50505050565b611b2c8282611190565b611bbb57611b518173ffffffffffffffffffffffffffffffffffffffff16601461252d565b611b5f8360001c602061252d565b604051602001611b70929190613c5a565b6040516020818303038152906040526040517f08c379a0000000000000000000000000000000000000000000000000000000008152600401611bb29190612eff565b60405180910390fd5b5050565b611bc98282611190565b15611c9d57600060fb600084815260200190815260200160002060000160008373ffffffffffffffffffffffffffffffffffffffff1673ffffffffffffffffffffffffffffffffffffffff16815260200190815260200160002060006101000a81548160ff021916908315150217905550611c426115ea565b73ffffffffffffffffffffffffffffffffffffffff168173ffffffffffffffffffffffffffffffffffffffff16837ff6391f5c32d9c69d2a47ea670b442974b53935d1edc7fd64eb21e047a839171b60405160405180910390a45b5050565b611ca9610e6a565b611ce8576040517f08c379a0000000000000000000000000000000000000000000000000000000008152600401611cdf90613ce0565b60405180910390fd5b6000609760006101000a81548160ff0219169083151502179055507f5db9ee0a495bf2e6ff9c91a7834c1ba4fdd244a5e8aa4e537bd38aeae4b073aa611d2c6115ea565b604051611d399190613d0f565b60405180910390a1565b600073ffffffffffffffffffffffffffffffffffffffff168273ffffffffffffffffffffffffffffffffffffffff161415611db3576040517f08c379a0000000000000000000000000000000000000000000000000000000008152600401611daa90613d76565b60405180910390fd5b611dbf600083836124d0565b8060356000828254611dd19190613499565b9250508190555080603360008473ffffffffffffffffffffffffffffffffffffffff1673ffffffffffffffffffffffffffffffffffffffff1681526020019081526020016000206000828254611e279190613499565b925050819055508173ffffffffffffffffffffffffffffffffffffffff16600073ffffffffffffffffffffffffffffffffffffffff167fddf252ad1be2c89b69c2b068fc378daa952ba7f163c4a11628f55a4df523b3ef83604051611e8c9190613004565b60405180910390a3611ea060008383612528565b5050565b600073ffffffffffffffffffffffffffffffffffffffff168273ffffffffffffffffffffffffffffffffffffffff161415611f14576040517f08c379a0000000000000000000000000000000000000000000000000000000008152600401611f0b90613e08565b60405180910390fd5b611f20826000836124d0565b6000603360008473ffffffffffffffffffffffffffffffffffffffff1673ffffffffffffffffffffffffffffffffffffffff16815260200190815260200160002054905081811015611fa7576040517f08c379a0000000000000000000000000000000000000000000000000000000008152600401611f9e90613e9a565b60405180910390fd5b818103603360008573ffffffffffffffffffffffffffffffffffffffff1673ffffffffffffffffffffffffffffffffffffffff168152602001908152602001600020819055508160356000828254611fff9190613eba565b92505081905550600073ffffffffffffffffffffffffffffffffffffffff168373ffffffffffffffffffffffffffffffffffffffff167fddf252ad1be2c89b69c2b068fc378daa952ba7f163c4a11628f55a4df523b3ef846040516120649190613004565b60405180910390a361207883600084612528565b505050565b600060019054906101000a900460ff16806120a3575060008054906101000a900460ff16155b6120e2576040517f08c379a00000000000000000000000000000000000000000000000000000000081526004016120d99061367c565b60405180910390fd5b60008060019054906101000a900460ff161590508015612132576001600060016101000a81548160ff02191690831515021790555060016000806101000a81548160ff0219169083151502179055505b61213a612769565b6121448383612842565b80156121655760008060016101000a81548160ff0219169083151502179055505b505050565b600060019054906101000a900460ff1680612190575060008054906101000a900460ff16155b6121cf576040517f08c379a00000000000000000000000000000000000000000000000000000000081526004016121c69061367c565b60405180910390fd5b60008060019054906101000a900460ff16159050801561221f576001600060016101000a81548160ff02191690831515021790555060016000806101000a81548160ff0219169083151502179055505b612227612769565b61222f61294b565b80156122505760008060016101000a81548160ff0219169083151502179055505b50565b600060019054906101000a900460ff1680612279575060008054906101000a900460ff16155b6122b8576040517f08c379a00000000000000000000000000000000000000000000000000000000081526004016122af9061367c565b60405180910390fd5b60008060019054906101000a900460ff161590508015612308576001600060016101000a81548160ff02191690831515021790555060016000806101000a81548160ff0219169083151502179055505b612310612769565b612318612a24565b80156123395760008060016101000a81548160ff0219169083151502179055505b50565b600060019054906101000a900460ff1680612362575060008054906101000a900460ff16155b6123a1576040517f08c379a00000000000000000000000000000000000000000000000000000000081526004016123989061367c565b60405180910390fd5b60008060019054906101000a900460ff1615905080156123f1576001600060016101000a81548160ff02191690831515021790555060016000806101000a81548160ff0219169083151502179055505b6123f9612769565b612401612b18565b612409612bf1565b801561242a5760008060016101000a81548160ff0219169083151502179055505b50565b612435610e6a565b15612475576040517f08c379a000000000000000000000000000000000000000000000000000000000815260040161246c90613f3a565b60405180910390fd5b6001609760006101000a81548160ff0219169083151502179055507f62e78cea01bee320cd4e420270b5ea74000d11b0c9f74754ebdbfc544b05a2586124b96115ea565b6040516124c69190613d0f565b60405180910390a1565b6124d8610e6a565b15612518576040517f08c379a000000000000000000000000000000000000000000000000000000000815260040161250f90613f3a565b60405180910390fd5b612523838383612cca565b505050565b505050565b60606000600283600261254091906134ef565b61254a9190613499565b67ffffffffffffffff81111561256357612562613f5a565b5b6040519080825280601f01601f1916602001820160405280156125955781602001600182028036833780820191505090505b5090507f3000000000000000000000000000000000000000000000000000000000000000816000815181106125cd576125cc613549565b5b60200101907effffffffffffffffffffffffffffffffffffffffffffffffffffffffffffff1916908160001a9053507f78000000000000000000000000000000000000000000000000000000000000008160018151811061263157612630613549565b5b60200101907effffffffffffffffffffffffffffffffffffffffffffffffffffffffffffff1916908160001a9053506000600184600261267191906134ef565b61267b9190613499565b90505b600181111561271b577f3031323334353637383961626364656600000000000000000000000000000000600f8616601081106126bd576126bc613549565b5b1a60f81b8282815181106126d4576126d3613549565b5b60200101907effffffffffffffffffffffffffffffffffffffffffffffffffffffffffffff1916908160001a905350600485901c94508061271490613f89565b905061267e565b506000841461275f576040517f08c379a000000000000000000000000000000000000000000000000000000000815260040161275690613fff565b60405180910390fd5b8091505092915050565b600060019054906101000a900460ff168061278f575060008054906101000a900460ff16155b6127ce576040517f08c379a00000000000000000000000000000000000000000000000000000000081526004016127c59061367c565b60405180910390fd5b60008060019054906101000a900460ff16159050801561281e576001600060016101000a81548160ff02191690831515021790555060016000806101000a81548160ff0219169083151502179055505b801561283f5760008060016101000a81548160ff0219169083151502179055505b50565b600060019054906101000a900460ff1680612868575060008054906101000a900460ff16155b6128a7576040517f08c379a000000000000000000000000000000000000000000000000000000000815260040161289e9061367c565b60405180910390fd5b60008060019054906101000a900460ff1615905080156128f7576001600060016101000a81548160ff02191690831515021790555060016000806101000a81548160ff0219169083151502179055505b826036908051906020019061290d929190612ccf565b508160379080519060200190612924929190612ccf565b5080156129465760008060016101000a81548160ff0219169083151502179055505b505050565b600060019054906101000a900460ff1680612971575060008054906101000a900460ff16155b6129b0576040517f08c379a00000000000000000000000000000000000000000000000000000000081526004016129a79061367c565b60405180910390fd5b60008060019054906101000a900460ff161590508015612a00576001600060016101000a81548160ff02191690831515021790555060016000806101000a81548160ff0219169083151502179055505b8015612a215760008060016101000a81548160ff0219169083151502179055505b50565b600060019054906101000a900460ff1680612a4a575060008054906101000a900460ff16155b612a89576040517f08c379a0000000000000000000000000000000000000000000000000000000008152600401612a809061367c565b60405180910390fd5b60008060019054906101000a900460ff161590508015612ad9576001600060016101000a81548160ff02191690831515021790555060016000806101000a81548160ff0219169083151502179055505b6000609760006101000a81548160ff0219169083151502179055508015612b155760008060016101000a81548160ff0219169083151502179055505b50565b600060019054906101000a900460ff1680612b3e575060008054906101000a900460ff16155b612b7d576040517f08c379a0000000000000000000000000000000000000000000000000000000008152600401612b749061367c565b60405180910390fd5b60008060019054906101000a900460ff161590508015612bcd576001600060016101000a81548160ff02191690831515021790555060016000806101000a81548160ff0219169083151502179055505b8015612bee5760008060016101000a81548160ff0219169083151502179055505b50565b600060019054906101000a900460ff1680612c17575060008054906101000a900460ff16155b612c56576040517f08c379a0000000000000000000000000000000000000000000000000000000008152600401612c4d9061367c565b60405180910390fd5b60008060019054906101000a900460ff161590508015612ca6576001600060016101000a81548160ff02191690831515021790555060016000806101000a81548160ff0219169083151502179055505b8015612cc75760008060016101000a81548160ff0219169083151502179055505b50565b505050565b828054612cdb90613282565b90600052602060002090601f016020900481019282612cfd5760008555612d44565b82601f10612d1657805160ff1916838001178555612d44565b82800160010185558215612d44579182015b82811115612d43578251825591602001919060010190612d28565b5b509050612d519190612d55565b5090565b5b80821115612d6e576000816000905550600101612d56565b5090565b600080fd5b60007fffffffff0000000000000000000000000000000000000000000000000000000082169050919050565b612dac81612d77565b8114612db757600080fd5b50565b600081359050612dc981612da3565b92915050565b600060208284031215612de557612de4612d72565b5b6000612df384828501612dba565b91505092915050565b60008115159050919050565b612e1181612dfc565b82525050565b6000602082019050612e2c6000830184612e08565b92915050565b6000819050919050565b612e4581612e32565b82525050565b6000602082019050612e606000830184612e3c565b92915050565b600081519050919050565b600082825260208201905092915050565b60005b83811015612ea0578082015181840152602081019050612e85565b83811115612eaf576000848401525b50505050565b6000601f19601f8301169050919050565b6000612ed182612e66565b612edb8185612e71565b9350612eeb818560208601612e82565b612ef481612eb5565b840191505092915050565b60006020820190508181036000830152612f198184612ec6565b905092915050565b600073ffffffffffffffffffffffffffffffffffffffff82169050919050565b6000612f4c82612f21565b9050919050565b612f5c81612f41565b8114612f6757600080fd5b50565b600081359050612f7981612f53565b92915050565b6000819050919050565b612f9281612f7f565b8114612f9d57600080fd5b50565b600081359050612faf81612f89565b92915050565b60008060408385031215612fcc57612fcb612d72565b5b6000612fda85828601612f6a565b9250506020612feb85828601612fa0565b9150509250929050565b612ffe81612f7f565b82525050565b60006020820190506130196000830184612ff5565b92915050565b60008060006060848603121561303857613037612d72565b5b600061304686828701612f6a565b935050602061305786828701612f6a565b925050604061306886828701612fa0565b9150509250925092565b61307b81612e32565b811461308657600080fd5b50565b60008135905061309881613072565b92915050565b6000602082840312156130b4576130b3612d72565b5b60006130c284828501613089565b91505092915050565b600080604083850312156130e2576130e1612d72565b5b60006130f085828601613089565b925050602061310185828601612f6a565b9150509250929050565b600060ff82169050919050565b6131218161310b565b82525050565b600060208201905061313c6000830184613118565b92915050565b60006020828403121561315857613157612d72565b5b600061316684828501612fa0565b91505092915050565b60006060820190506131846000830186612e3c565b6131916020830185612e3c565b61319e6040830184612e3c565b949350505050565b6000602082840312156131bc576131bb612d72565b5b60006131ca84828501612f6a565b91505092915050565b600080604083850312156131ea576131e9612d72565b5b60006131f885828601612f6a565b925050602061320985828601613089565b9150509250929050565b6000806040838503121561322a57613229612d72565b5b600061323885828601612f6a565b925050602061324985828601612f6a565b9150509250929050565b7f4e487b7100000000000000000000000000000000000000000000000000000000600052602260045260246000fd5b6000600282049050600182168061329a57607f821691505b602082108114156132ae576132ad613253565b5b50919050565b7f53656e6465722068617320746f2062652074686520676e6f7369732077616c6c60008201527f65742e0000000000000000000000000000000000000000000000000000000000602082015250565b6000613310602383612e71565b915061331b826132b4565b604082019050919050565b6000602082019050818103600083015261333f81613303565b9050919050565b7f45524332303a207472616e7366657220616d6f756e742065786365656473206160008201527f6c6c6f77616e6365000000000000000000000000000000000000000000000000602082015250565b60006133a2602883612e71565b91506133ad82613346565b604082019050919050565b600060208201905081810360008301526133d181613395565b9050919050565b7f416363657373436f6e74726f6c3a2063616e206f6e6c792072656e6f756e636560008201527f20726f6c657320666f722073656c660000000000000000000000000000000000602082015250565b6000613434602f83612e71565b915061343f826133d8565b604082019050919050565b6000602082019050818103600083015261346381613427565b9050919050565b7f4e487b7100000000000000000000000000000000000000000000000000000000600052601160045260246000fd5b60006134a482612f7f565b91506134af83612f7f565b9250827fffffffffffffffffffffffffffffffffffffffffffffffffffffffffffffffff038211156134e4576134e361346a565b5b828201905092915050565b60006134fa82612f7f565b915061350583612f7f565b9250817fffffffffffffffffffffffffffffffffffffffffffffffffffffffffffffffff048311821515161561353e5761353d61346a565b5b828202905092915050565b7f4e487b7100000000000000000000000000000000000000000000000000000000600052603260045260246000fd5b7f45524332303a206275726e20616d6f756e74206578636565647320616c6c6f7760008201527f616e636500000000000000000000000000000000000000000000000000000000602082015250565b60006135d4602483612e71565b91506135df82613578565b604082019050919050565b60006020820190508181036000830152613603816135c7565b9050919050565b7f496e697469616c697a61626c653a20636f6e747261637420697320616c72656160008201527f647920696e697469616c697a6564000000000000000000000000000000000000602082015250565b6000613666602e83612e71565b91506136718261360a565b604082019050919050565b6000602082019050818103600083015261369581613659565b9050919050565b60008160011c9050919050565b6000808291508390505b60018511156136f3578086048111156136cf576136ce61346a565b5b60018516156136de5780820291505b80810290506136ec8561369c565b94506136b3565b94509492505050565b60008261370c57600190506137c8565b8161371a57600090506137c8565b8160018114613730576002811461373a57613769565b60019150506137c8565b60ff84111561374c5761374b61346a565b5b8360020a9150848211156137635761376261346a565b5b506137c8565b5060208310610133831016604e8410600b841016171561379e5782820a9050838111156137995761379861346a565b5b6137c8565b6137ab84848460016136a9565b925090508184048111156137c2576137c161346a565b5b81810290505b9392505050565b60006137da82612f7f565b91506137e58361310b565b92506138127fffffffffffffffffffffffffffffffffffffffffffffffffffffffffffffffff84846136fc565b905092915050565b7f45524332303a2064656372656173656420616c6c6f77616e63652062656c6f7760008201527f207a65726f000000000000000000000000000000000000000000000000000000602082015250565b6000613876602583612e71565b91506138818261381a565b604082019050919050565b600060208201905081810360008301526138a581613869565b9050919050565b7f45524332303a20617070726f76652066726f6d20746865207a65726f2061646460008201527f7265737300000000000000000000000000000000000000000000000000000000602082015250565b6000613908602483612e71565b9150613913826138ac565b604082019050919050565b60006020820190508181036000830152613937816138fb565b9050919050565b7f45524332303a20617070726f766520746f20746865207a65726f20616464726560008201527f7373000000000000000000000000000000000000000000000000000000000000602082015250565b600061399a602283612e71565b91506139a58261393e565b604082019050919050565b600060208201905081810360008301526139c98161398d565b9050919050565b7f45524332303a207472616e736665722066726f6d20746865207a65726f20616460008201527f6472657373000000000000000000000000000000000000000000000000000000602082015250565b6000613a2c602583612e71565b9150613a37826139d0565b604082019050919050565b60006020820190508181036000830152613a5b81613a1f565b9050919050565b7f45524332303a207472616e7366657220746f20746865207a65726f206164647260008201527f6573730000000000000000000000000000000000000000000000000000000000602082015250565b6000613abe602383612e71565b9150613ac982613a62565b604082019050919050565b60006020820190508181036000830152613aed81613ab1565b9050919050565b7f45524332303a207472616e7366657220616d6f756e742065786365656473206260008201527f616c616e63650000000000000000000000000000000000000000000000000000602082015250565b6000613b50602683612e71565b9150613b5b82613af4565b604082019050919050565b60006020820190508181036000830152613b7f81613b43565b9050919050565b600081905092915050565b7f416363657373436f6e74726f6c3a206163636f756e7420000000000000000000600082015250565b6000613bc7601783613b86565b9150613bd282613b91565b601782019050919050565b6000613be882612e66565b613bf28185613b86565b9350613c02818560208601612e82565b80840191505092915050565b7f206973206d697373696e6720726f6c6520000000000000000000000000000000600082015250565b6000613c44601183613b86565b9150613c4f82613c0e565b601182019050919050565b6000613c6582613bba565b9150613c718285613bdd565b9150613c7c82613c37565b9150613c888284613bdd565b91508190509392505050565b7f5061757361626c653a206e6f7420706175736564000000000000000000000000600082015250565b6000613cca601483612e71565b9150613cd582613c94565b602082019050919050565b60006020820190508181036000830152613cf981613cbd565b9050919050565b613d0981612f41565b82525050565b6000602082019050613d246000830184613d00565b92915050565b7f45524332303a206d696e7420746f20746865207a65726f206164647265737300600082015250565b6000613d60601f83612e71565b9150613d6b82613d2a565b602082019050919050565b60006020820190508181036000830152613d8f81613d53565b9050919050565b7f45524332303a206275726e2066726f6d20746865207a65726f2061646472657360008201527f7300000000000000000000000000000000000000000000000000000000000000602082015250565b6000613df2602183612e71565b9150613dfd82613d96565b604082019050919050565b60006020820190508181036000830152613e2181613de5565b9050919050565b7f45524332303a206275726e20616d6f756e7420657863656564732062616c616e60008201527f6365000000000000000000000000000000000000000000000000000000000000602082015250565b6000613e84602283612e71565b9150613e8f82613e28565b604082019050919050565b60006020820190508181036000830152613eb381613e77565b9050919050565b6000613ec582612f7f565b9150613ed083612f7f565b925082821015613ee357613ee261346a565b5b828203905092915050565b7f5061757361626c653a2070617573656400000000000000000000000000000000600082015250565b6000613f24601083612e71565b9150613f2f82613eee565b602082019050919050565b60006020820190508181036000830152613f5381613f17565b9050919050565b7f4e487b7100000000000000000000000000000000000000000000000000000000600052604160045260246000fd5b6000613f9482612f7f565b91506000821415613fa857613fa761346a565b5b600182039050919050565b7f537472696e67733a20686578206c656e67746820696e73756666696369656e74600082015250565b6000613fe9602083612e71565b9150613ff482613fb3565b602082019050919050565b6000602082019050818103600083015261401881613fdc565b905091905056fea264697066735822122083cc5d9fab5a24b4bdd9349e237865dcee6e566825014a0543d56d56c3edecf664736f6c634300080a0033",
  "linkReferences": {},
  "deployedLinkReferences": {}
}